{
    "_format": "hh-sol-artifact-1",
    "contractName": "MyEpicGame",
    "sourceName": "contracts/MyEpicGame.sol",
    "abi": [
        {
            "inputs": [
                {
                    "internalType": "string[]",
                    "name": "characterNames",
                    "type": "string[]"
                },
                {
                    "internalType": "string[]",
                    "name": "characterImageURIs",
                    "type": "string[]"
                },
                {
                    "internalType": "uint256[]",
                    "name": "characterHp",
                    "type": "uint256[]"
                },
                {
                    "internalType": "uint256[]",
                    "name": "characterAttackDamage",
                    "type": "uint256[]"
                },
                {
                    "internalType": "string",
                    "name": "bossName",
                    "type": "string"
                },
                {
                    "internalType": "string",
                    "name": "bossImageURI",
                    "type": "string"
                },
                {
                    "internalType": "uint256",
                    "name": "bossHp",
                    "type": "uint256"
                },
                {
                    "internalType": "uint256",
                    "name": "bossAttackDamage",
                    "type": "uint256"
                }
            ],
            "stateMutability": "nonpayable",
            "type": "constructor"
        },
        {
            "anonymous": false,
            "inputs": [
                {
                    "indexed": true,
                    "internalType": "address",
                    "name": "owner",
                    "type": "address"
                },
                {
                    "indexed": true,
                    "internalType": "address",
                    "name": "approved",
                    "type": "address"
                },
                {
                    "indexed": true,
                    "internalType": "uint256",
                    "name": "tokenId",
                    "type": "uint256"
                }
            ],
            "name": "Approval",
            "type": "event"
        },
        {
            "anonymous": false,
            "inputs": [
                {
                    "indexed": true,
                    "internalType": "address",
                    "name": "owner",
                    "type": "address"
                },
                {
                    "indexed": true,
                    "internalType": "address",
                    "name": "operator",
                    "type": "address"
                },
                {
                    "indexed": false,
                    "internalType": "bool",
                    "name": "approved",
                    "type": "bool"
                }
            ],
            "name": "ApprovalForAll",
            "type": "event"
        },
        {
            "anonymous": false,
            "inputs": [
                {
                    "indexed": false,
                    "internalType": "address",
                    "name": "sender",
                    "type": "address"
                },
                {
                    "indexed": false,
                    "internalType": "uint256",
                    "name": "newBossHp",
                    "type": "uint256"
                },
                {
                    "indexed": false,
                    "internalType": "uint256",
                    "name": "newPlayerHp",
                    "type": "uint256"
                }
            ],
            "name": "AttackComplete",
            "type": "event"
        },
        {
            "anonymous": false,
            "inputs": [
                {
                    "indexed": false,
                    "internalType": "address",
                    "name": "sender",
                    "type": "address"
                },
                {
                    "indexed": false,
                    "internalType": "uint256",
                    "name": "tokenId",
                    "type": "uint256"
                },
                {
                    "indexed": false,
                    "internalType": "uint256",
                    "name": "characterIndex",
                    "type": "uint256"
                }
            ],
            "name": "CharacterNFTMinted",
            "type": "event"
        },
        {
            "anonymous": false,
            "inputs": [
                {
                    "indexed": true,
                    "internalType": "address",
                    "name": "from",
                    "type": "address"
                },
                {
                    "indexed": true,
                    "internalType": "address",
                    "name": "to",
                    "type": "address"
                },
                {
                    "indexed": true,
                    "internalType": "uint256",
                    "name": "tokenId",
                    "type": "uint256"
                }
            ],
            "name": "Transfer",
            "type": "event"
        },
        {
            "inputs": [
                {
                    "internalType": "address",
                    "name": "to",
                    "type": "address"
                },
                {
                    "internalType": "uint256",
                    "name": "tokenId",
                    "type": "uint256"
                }
            ],
            "name": "approve",
            "outputs": [],
            "stateMutability": "nonpayable",
            "type": "function"
        },
        {
            "inputs": [],
            "name": "attackBoss",
            "outputs": [],
            "stateMutability": "nonpayable",
            "type": "function"
        },
        {
            "inputs": [
                {
                    "internalType": "address",
                    "name": "owner",
                    "type": "address"
                }
            ],
            "name": "balanceOf",
            "outputs": [
                {
                    "internalType": "uint256",
                    "name": "",
                    "type": "uint256"
                }
            ],
            "stateMutability": "view",
            "type": "function"
        },
        {
            "inputs": [],
            "name": "bigBoss",
            "outputs": [
                {
                    "internalType": "string",
                    "name": "name",
                    "type": "string"
                },
                {
                    "internalType": "string",
                    "name": "imageURI",
                    "type": "string"
                },
                {
                    "internalType": "uint256",
                    "name": "hp",
                    "type": "uint256"
                },
                {
                    "internalType": "uint256",
                    "name": "maxHp",
                    "type": "uint256"
                },
                {
                    "internalType": "uint256",
                    "name": "attackDamage",
                    "type": "uint256"
                }
            ],
            "stateMutability": "view",
            "type": "function"
        },
        {
            "inputs": [],
            "name": "checkIfUserHasNFT",
            "outputs": [
                {
                    "components": [
                        {
                            "internalType": "uint256",
                            "name": "characterIndex",
                            "type": "uint256"
                        },
                        {
                            "internalType": "string",
                            "name": "name",
                            "type": "string"
                        },
                        {
                            "internalType": "string",
                            "name": "imageURI",
                            "type": "string"
                        },
                        {
                            "internalType": "uint256",
                            "name": "hp",
                            "type": "uint256"
                        },
                        {
                            "internalType": "uint256",
                            "name": "maxHp",
                            "type": "uint256"
                        },
                        {
                            "internalType": "uint256",
                            "name": "attackDamage",
                            "type": "uint256"
                        }
                    ],
                    "internalType": "struct MyEpicGame.CharacterAttributes",
                    "name": "",
                    "type": "tuple"
                }
            ],
            "stateMutability": "view",
            "type": "function"
        },
        {
            "inputs": [],
            "name": "getAllDefaultCharacters",
            "outputs": [
                {
                    "components": [
                        {
                            "internalType": "uint256",
                            "name": "characterIndex",
                            "type": "uint256"
                        },
                        {
                            "internalType": "string",
                            "name": "name",
                            "type": "string"
                        },
                        {
                            "internalType": "string",
                            "name": "imageURI",
                            "type": "string"
                        },
                        {
                            "internalType": "uint256",
                            "name": "hp",
                            "type": "uint256"
                        },
                        {
                            "internalType": "uint256",
                            "name": "maxHp",
                            "type": "uint256"
                        },
                        {
                            "internalType": "uint256",
                            "name": "attackDamage",
                            "type": "uint256"
                        }
                    ],
                    "internalType": "struct MyEpicGame.CharacterAttributes[]",
                    "name": "",
                    "type": "tuple[]"
                }
            ],
            "stateMutability": "view",
            "type": "function"
        },
        {
            "inputs": [
                {
                    "internalType": "uint256",
                    "name": "tokenId",
                    "type": "uint256"
                }
            ],
            "name": "getApproved",
            "outputs": [
                {
                    "internalType": "address",
                    "name": "",
                    "type": "address"
                }
            ],
            "stateMutability": "view",
            "type": "function"
        },
        {
            "inputs": [],
            "name": "getBigBoss",
            "outputs": [
                {
                    "components": [
                        {
                            "internalType": "string",
                            "name": "name",
                            "type": "string"
                        },
                        {
                            "internalType": "string",
                            "name": "imageURI",
                            "type": "string"
                        },
                        {
                            "internalType": "uint256",
                            "name": "hp",
                            "type": "uint256"
                        },
                        {
                            "internalType": "uint256",
                            "name": "maxHp",
                            "type": "uint256"
                        },
                        {
                            "internalType": "uint256",
                            "name": "attackDamage",
                            "type": "uint256"
                        }
                    ],
                    "internalType": "struct MyEpicGame.BigBoss",
                    "name": "",
                    "type": "tuple"
                }
            ],
            "stateMutability": "view",
            "type": "function"
        },
        {
            "inputs": [
                {
                    "internalType": "address",
                    "name": "owner",
                    "type": "address"
                },
                {
                    "internalType": "address",
                    "name": "operator",
                    "type": "address"
                }
            ],
            "name": "isApprovedForAll",
            "outputs": [
                {
                    "internalType": "bool",
                    "name": "",
                    "type": "bool"
                }
            ],
            "stateMutability": "view",
            "type": "function"
        },
        {
            "inputs": [
                {
                    "internalType": "uint256",
                    "name": "_characterIndex",
                    "type": "uint256"
                }
            ],
            "name": "mintCharacterNFT",
            "outputs": [],
            "stateMutability": "nonpayable",
            "type": "function"
        },
        {
            "inputs": [],
            "name": "name",
            "outputs": [
                {
                    "internalType": "string",
                    "name": "",
                    "type": "string"
                }
            ],
            "stateMutability": "view",
            "type": "function"
        },
        {
            "inputs": [
                {
                    "internalType": "uint256",
                    "name": "",
                    "type": "uint256"
                }
            ],
            "name": "nftHolderAttributes",
            "outputs": [
                {
                    "internalType": "uint256",
                    "name": "characterIndex",
                    "type": "uint256"
                },
                {
                    "internalType": "string",
                    "name": "name",
                    "type": "string"
                },
                {
                    "internalType": "string",
                    "name": "imageURI",
                    "type": "string"
                },
                {
                    "internalType": "uint256",
                    "name": "hp",
                    "type": "uint256"
                },
                {
                    "internalType": "uint256",
                    "name": "maxHp",
                    "type": "uint256"
                },
                {
                    "internalType": "uint256",
                    "name": "attackDamage",
                    "type": "uint256"
                }
            ],
            "stateMutability": "view",
            "type": "function"
        },
        {
            "inputs": [
                {
                    "internalType": "address",
                    "name": "",
                    "type": "address"
                }
            ],
            "name": "nftHolders",
            "outputs": [
                {
                    "internalType": "uint256",
                    "name": "",
                    "type": "uint256"
                }
            ],
            "stateMutability": "view",
            "type": "function"
        },
        {
            "inputs": [
                {
                    "internalType": "uint256",
                    "name": "tokenId",
                    "type": "uint256"
                }
            ],
            "name": "ownerOf",
            "outputs": [
                {
                    "internalType": "address",
                    "name": "",
                    "type": "address"
                }
            ],
            "stateMutability": "view",
            "type": "function"
        },
        {
            "inputs": [
                {
                    "internalType": "address",
                    "name": "from",
                    "type": "address"
                },
                {
                    "internalType": "address",
                    "name": "to",
                    "type": "address"
                },
                {
                    "internalType": "uint256",
                    "name": "tokenId",
                    "type": "uint256"
                }
            ],
            "name": "safeTransferFrom",
            "outputs": [],
            "stateMutability": "nonpayable",
            "type": "function"
        },
        {
            "inputs": [
                {
                    "internalType": "address",
                    "name": "from",
                    "type": "address"
                },
                {
                    "internalType": "address",
                    "name": "to",
                    "type": "address"
                },
                {
                    "internalType": "uint256",
                    "name": "tokenId",
                    "type": "uint256"
                },
                {
                    "internalType": "bytes",
                    "name": "data",
                    "type": "bytes"
                }
            ],
            "name": "safeTransferFrom",
            "outputs": [],
            "stateMutability": "nonpayable",
            "type": "function"
        },
        {
            "inputs": [
                {
                    "internalType": "address",
                    "name": "operator",
                    "type": "address"
                },
                {
                    "internalType": "bool",
                    "name": "approved",
                    "type": "bool"
                }
            ],
            "name": "setApprovalForAll",
            "outputs": [],
            "stateMutability": "nonpayable",
            "type": "function"
        },
        {
            "inputs": [
                {
                    "internalType": "bytes4",
                    "name": "interfaceId",
                    "type": "bytes4"
                }
            ],
            "name": "supportsInterface",
            "outputs": [
                {
                    "internalType": "bool",
                    "name": "",
                    "type": "bool"
                }
            ],
            "stateMutability": "view",
            "type": "function"
        },
        {
            "inputs": [],
            "name": "symbol",
            "outputs": [
                {
                    "internalType": "string",
                    "name": "",
                    "type": "string"
                }
            ],
            "stateMutability": "view",
            "type": "function"
        },
        {
            "inputs": [
                {
                    "internalType": "uint256",
                    "name": "_tokenId",
                    "type": "uint256"
                }
            ],
            "name": "tokenURI",
            "outputs": [
                {
                    "internalType": "string",
                    "name": "",
                    "type": "string"
                }
            ],
            "stateMutability": "view",
            "type": "function"
        },
        {
            "inputs": [
                {
                    "internalType": "address",
                    "name": "from",
                    "type": "address"
                },
                {
                    "internalType": "address",
                    "name": "to",
                    "type": "address"
                },
                {
                    "internalType": "uint256",
                    "name": "tokenId",
                    "type": "uint256"
                }
            ],
            "name": "transferFrom",
            "outputs": [],
            "stateMutability": "nonpayable",
            "type": "function"
        }
    ],
    "bytecode": "0x60806040526000600e553480156200001657600080fd5b50604051620064973803806200649783398181016040528101906200003c919062000b7d565b6040518060400160405280600881526020017f4149204865726f730000000000000000000000000000000000000000000000008152506040518060400160405280600381526020017f41494800000000000000000000000000000000000000000000000000000000008152508160009081620000b9919062000f41565b508060019081620000cb919062000f41565b505050620001196040518060400160405280601c81526020017f4d794570696347616d652e736f6c20636f6e7374727563746f722829000000008152506200064f60201b62001e0b1760201c565b6040518060a00160405280858152602001848152602001838152602001838152602001828152506009600082015181600001908162000159919062000f41565b50602082015181600101908162000171919062000f41565b50604082015181600201556060820151816003015560808201518160040155905050620002f46040518060600160405280602a81526020016200646d602a913960096000018054620001c39062000d3a565b80601f0160208091040260200160405190810160405280929190818152602001828054620001f19062000d3a565b8015620002425780601f10620002165761010080835404028352916020019162000242565b820191906000526020600020905b8154815290600101906020018083116200022457829003601f168201915b5050505050600960020154600960010180546200025f9062000d3a565b80601f01602080910402602001604051908101604052809291908181526020018280546200028d9062000d3a565b8015620002de5780601f10620002b257610100808354040283529160200191620002de565b820191906000526020600020905b815481529060010190602001808311620002c057829003601f168201915b5050505050620006f260201b62001ea41760201c565b60005b88518110156200062957600f6040518060c001604052808381526020018b84815181106200032a576200032962001028565b5b602002602001015181526020018a84815181106200034d576200034c62001028565b5b6020026020010151815260200189848151811062000370576200036f62001028565b5b6020026020010151815260200189848151811062000393576200039262001028565b5b60200260200101518152602001888481518110620003b657620003b562001028565b5b602002602001015181525090806001815401808255809150506001900390600052602060002090600602016000909190919091506000820151816000015560208201518160010190816200040b919062000f41565b50604082015181600201908162000423919062000f41565b50606082015181600301556080820151816004015560a0820151816005015550506000600f82815481106200045d576200045c62001028565b5b90600052602060002090600602016040518060c001604052908160008201548152602001600182018054620004929062000d3a565b80601f0160208091040260200160405190810160405280929190818152602001828054620004c09062000d3a565b8015620005115780601f10620004e55761010080835404028352916020019162000511565b820191906000526020600020905b815481529060010190602001808311620004f357829003601f168201915b505050505081526020016002820180546200052c9062000d3a565b80601f01602080910402602001604051908101604052809291908181526020018280546200055a9062000d3a565b8015620005ab5780601f106200057f57610100808354040283529160200191620005ab565b820191906000526020600020905b8154815290600101906020018083116200058d57829003601f168201915b5050505050815260200160038201548152602001600482015481526020016005820154815250509050620006126040518060600160405280602581526020016200644860259139826020015183606001518460400151620006f260201b62001ea41760201c565b508080620006209062001086565b915050620002f7565b506200064160066200079e60201b62001f461760201c565b5050505050505050620011bc565b620006ef8160405160240162000666919062001125565b6040516020818303038152906040527f41304fac000000000000000000000000000000000000000000000000000000007bffffffffffffffffffffffffffffffffffffffffffffffffffffffff19166020820180517bffffffffffffffffffffffffffffffffffffffffffffffffffffffff8381831617835250505050620007b460201b60201c565b50565b62000798848484846040516024016200070f94939291906200115a565b6040516020818303038152906040527f5d1a971a000000000000000000000000000000000000000000000000000000007bffffffffffffffffffffffffffffffffffffffffffffffffffffffff19166020820180517bffffffffffffffffffffffffffffffffffffffffffffffffffffffff8381831617835250505050620007b460201b60201c565b50505050565b6001816000016000828254019250508190555050565b60008151905060006a636f6e736f6c652e6c6f679050602083016000808483855afa5050505050565b6000604051905090565b600080fd5b600080fd5b600080fd5b6000601f19601f8301169050919050565b7f4e487b7100000000000000000000000000000000000000000000000000000000600052604160045260246000fd5b6200084182620007f6565b810181811067ffffffffffffffff8211171562000863576200086262000807565b5b80604052505050565b600062000878620007dd565b905062000886828262000836565b919050565b600067ffffffffffffffff821115620008a957620008a862000807565b5b602082029050602081019050919050565b600080fd5b600080fd5b600067ffffffffffffffff821115620008e257620008e162000807565b5b620008ed82620007f6565b9050602081019050919050565b60005b838110156200091a578082015181840152602081019050620008fd565b60008484015250505050565b60006200093d6200093784620008c4565b6200086c565b9050828152602081018484840111156200095c576200095b620008bf565b5b62000969848285620008fa565b509392505050565b600082601f830112620009895762000988620007f1565b5b81516200099b84826020860162000926565b91505092915050565b6000620009bb620009b5846200088b565b6200086c565b90508083825260208201905060208402830185811115620009e157620009e0620008ba565b5b835b8181101562000a2f57805167ffffffffffffffff81111562000a0a5762000a09620007f1565b5b80860162000a19898262000971565b85526020850194505050602081019050620009e3565b5050509392505050565b600082601f83011262000a515762000a50620007f1565b5b815162000a63848260208601620009a4565b91505092915050565b600067ffffffffffffffff82111562000a8a5762000a8962000807565b5b602082029050602081019050919050565b6000819050919050565b62000ab08162000a9b565b811462000abc57600080fd5b50565b60008151905062000ad08162000aa5565b92915050565b600062000aed62000ae78462000a6c565b6200086c565b9050808382526020820190506020840283018581111562000b135762000b12620008ba565b5b835b8181101562000b40578062000b2b888262000abf565b84526020840193505060208101905062000b15565b5050509392505050565b600082601f83011262000b625762000b61620007f1565b5b815162000b7484826020860162000ad6565b91505092915050565b600080600080600080600080610100898b03121562000ba15762000ba0620007e7565b5b600089015167ffffffffffffffff81111562000bc25762000bc1620007ec565b5b62000bd08b828c0162000a39565b985050602089015167ffffffffffffffff81111562000bf45762000bf3620007ec565b5b62000c028b828c0162000a39565b975050604089015167ffffffffffffffff81111562000c265762000c25620007ec565b5b62000c348b828c0162000b4a565b965050606089015167ffffffffffffffff81111562000c585762000c57620007ec565b5b62000c668b828c0162000b4a565b955050608089015167ffffffffffffffff81111562000c8a5762000c89620007ec565b5b62000c988b828c0162000971565b94505060a089015167ffffffffffffffff81111562000cbc5762000cbb620007ec565b5b62000cca8b828c0162000971565b93505060c062000cdd8b828c0162000abf565b92505060e062000cf08b828c0162000abf565b9150509295985092959890939650565b600081519050919050565b7f4e487b7100000000000000000000000000000000000000000000000000000000600052602260045260246000fd5b6000600282049050600182168062000d5357607f821691505b60208210810362000d695762000d6862000d0b565b5b50919050565b60008190508160005260206000209050919050565b60006020601f8301049050919050565b600082821b905092915050565b60006008830262000dd37fffffffffffffffffffffffffffffffffffffffffffffffffffffffffffffffff8262000d94565b62000ddf868362000d94565b95508019841693508086168417925050509392505050565b6000819050919050565b600062000e2262000e1c62000e168462000a9b565b62000df7565b62000a9b565b9050919050565b6000819050919050565b62000e3e8362000e01565b62000e5662000e4d8262000e29565b84845462000da1565b825550505050565b600090565b62000e6d62000e5e565b62000e7a81848462000e33565b505050565b5b8181101562000ea25762000e9660008262000e63565b60018101905062000e80565b5050565b601f82111562000ef15762000ebb8162000d6f565b62000ec68462000d84565b8101602085101562000ed6578190505b62000eee62000ee58562000d84565b83018262000e7f565b50505b505050565b600082821c905092915050565b600062000f166000198460080262000ef6565b1980831691505092915050565b600062000f31838362000f03565b9150826002028217905092915050565b62000f4c8262000d00565b67ffffffffffffffff81111562000f685762000f6762000807565b5b62000f74825462000d3a565b62000f8182828562000ea6565b600060209050601f83116001811462000fb9576000841562000fa4578287015190505b62000fb0858262000f23565b86555062001020565b601f19841662000fc98662000d6f565b60005b8281101562000ff35784890151825560018201915060208501945060208101905062000fcc565b868310156200101357848901516200100f601f89168262000f03565b8355505b6001600288020188555050505b505050505050565b7f4e487b7100000000000000000000000000000000000000000000000000000000600052603260045260246000fd5b7f4e487b7100000000000000000000000000000000000000000000000000000000600052601160045260246000fd5b6000620010938262000a9b565b91507fffffffffffffffffffffffffffffffffffffffffffffffffffffffffffffffff8203620010c857620010c762001057565b5b600182019050919050565b600082825260208201905092915050565b6000620010f18262000d00565b620010fd8185620010d3565b93506200110f818560208601620008fa565b6200111a81620007f6565b840191505092915050565b60006020820190508181036000830152620011418184620010e4565b905092915050565b620011548162000a9b565b82525050565b60006080820190508181036000830152620011768187620010e4565b905081810360208301526200118c8186620010e4565b90506200119d604083018562001149565b8181036060830152620011b18184620010e4565b905095945050505050565b61527c80620011cc6000396000f3fe608060405234801561001057600080fd5b50600436106101375760003560e01c806395d89b41116100b8578063b953084e1161007c578063b953084e14610369578063c87b56dd14610387578063c8cf27f4146103b7578063d4f24c5b146103d5578063e985e9c5146103df578063f8b81ef71461040f57610137565b806395d89b41146102bc57806398da4c95146102da578063a22cb4651461030f578063a9c326791461032b578063b88d4fde1461034d57610137565b806323b872dd116100ff57806323b872dd146101f457806342842e0e146102105780636352211e1461022c57806370a082311461025c5780637df124a11461028c57610137565b806301ffc9a71461013c5780630665f9611461016c57806306fdde031461018a578063081812fc146101a8578063095ea7b3146101d8575b600080fd5b610156600480360381019061015191906134e5565b61042b565b604051610163919061352d565b60405180910390f35b61017461050d565b604051610181919061366e565b60405180910390f35b610192610669565b60405161019f91906136da565b60405180910390f35b6101c260048036038101906101bd9190613728565b6106fb565b6040516101cf9190613796565b60405180910390f35b6101f260048036038101906101ed91906137dd565b610741565b005b61020e6004803603810190610209919061381d565b610858565b005b61022a6004803603810190610225919061381d565b6108b8565b005b61024660048036038101906102419190613728565b6108d8565b6040516102539190613796565b60405180910390f35b61027660048036038101906102719190613870565b61095e565b60405161028391906138ac565b60405180910390f35b6102a660048036038101906102a19190613870565b610a15565b6040516102b391906138ac565b60405180910390f35b6102c4610a2d565b6040516102d191906136da565b60405180910390f35b6102f460048036038101906102ef9190613728565b610abf565b604051610306969594939291906138c7565b60405180910390f35b61032960048036038101906103249190613962565b610c0b565b005b610333610c21565b6040516103449594939291906139a2565b60405180910390f35b61036760048036038101906103629190613b38565b610d55565b005b610371610db7565b60405161037e9190613d0d565b60405180910390f35b6103a1600480360381019061039c9190613728565b610f62565b6040516103ae91906136da565b60405180910390f35b6103bf61117d565b6040516103cc9190613dbf565b60405180910390f35b6103dd611355565b005b6103f960048036038101906103f49190613de1565b611a4f565b604051610406919061352d565b60405180910390f35b61042960048036038101906104249190613728565b611ae3565b005b60007f80ac58cd000000000000000000000000000000000000000000000000000000007bffffffffffffffffffffffffffffffffffffffffffffffffffffffff1916827bffffffffffffffffffffffffffffffffffffffffffffffffffffffff191614806104f657507f5b5e139f000000000000000000000000000000000000000000000000000000007bffffffffffffffffffffffffffffffffffffffffffffffffffffffff1916827bffffffffffffffffffffffffffffffffffffffffffffffffffffffff1916145b80610506575061050582611f5c565b5b9050919050565b610515613414565b60096040518060a001604052908160008201805461053290613e50565b80601f016020809104026020016040519081016040528092919081815260200182805461055e90613e50565b80156105ab5780601f10610580576101008083540402835291602001916105ab565b820191906000526020600020905b81548152906001019060200180831161058e57829003601f168201915b505050505081526020016001820180546105c490613e50565b80601f01602080910402602001604051908101604052809291908181526020018280546105f090613e50565b801561063d5780601f106106125761010080835404028352916020019161063d565b820191906000526020600020905b81548152906001019060200180831161062057829003601f168201915b505050505081526020016002820154815260200160038201548152602001600482015481525050905090565b60606000805461067890613e50565b80601f01602080910402602001604051908101604052809291908181526020018280546106a490613e50565b80156106f15780601f106106c6576101008083540402835291602001916106f1565b820191906000526020600020905b8154815290600101906020018083116106d457829003601f168201915b5050505050905090565b600061070682611fc6565b6004600083815260200190815260200160002060009054906101000a900473ffffffffffffffffffffffffffffffffffffffff169050919050565b600061074c826108d8565b90508073ffffffffffffffffffffffffffffffffffffffff168373ffffffffffffffffffffffffffffffffffffffff16036107bc576040517f08c379a00000000000000000000000000000000000000000000000000000000081526004016107b390613ef3565b60405180910390fd5b8073ffffffffffffffffffffffffffffffffffffffff166107db612011565b73ffffffffffffffffffffffffffffffffffffffff16148061080a575061080981610804612011565b611a4f565b5b610849576040517f08c379a000000000000000000000000000000000000000000000000000000000815260040161084090613f85565b60405180910390fd5b6108538383612019565b505050565b610869610863612011565b826120d2565b6108a8576040517f08c379a000000000000000000000000000000000000000000000000000000000815260040161089f90614017565b60405180910390fd5b6108b3838383612167565b505050565b6108d383838360405180602001604052806000815250610d55565b505050565b6000806108e483612460565b9050600073ffffffffffffffffffffffffffffffffffffffff168173ffffffffffffffffffffffffffffffffffffffff1603610955576040517f08c379a000000000000000000000000000000000000000000000000000000000815260040161094c90614083565b60405180910390fd5b80915050919050565b60008073ffffffffffffffffffffffffffffffffffffffff168273ffffffffffffffffffffffffffffffffffffffff16036109ce576040517f08c379a00000000000000000000000000000000000000000000000000000000081526004016109c590614115565b60405180910390fd5b600360008373ffffffffffffffffffffffffffffffffffffffff1673ffffffffffffffffffffffffffffffffffffffff168152602001908152602001600020549050919050565b60086020528060005260406000206000915090505481565b606060018054610a3c90613e50565b80601f0160208091040260200160405190810160405280929190818152602001828054610a6890613e50565b8015610ab55780601f10610a8a57610100808354040283529160200191610ab5565b820191906000526020600020905b815481529060010190602001808311610a9857829003601f168201915b5050505050905090565b6007602052806000526040600020600091509050806000015490806001018054610ae890613e50565b80601f0160208091040260200160405190810160405280929190818152602001828054610b1490613e50565b8015610b615780601f10610b3657610100808354040283529160200191610b61565b820191906000526020600020905b815481529060010190602001808311610b4457829003601f168201915b505050505090806002018054610b7690613e50565b80601f0160208091040260200160405190810160405280929190818152602001828054610ba290613e50565b8015610bef5780601f10610bc457610100808354040283529160200191610bef565b820191906000526020600020905b815481529060010190602001808311610bd257829003601f168201915b5050505050908060030154908060040154908060050154905086565b610c1d610c16612011565b838361249d565b5050565b6009806000018054610c3290613e50565b80601f0160208091040260200160405190810160405280929190818152602001828054610c5e90613e50565b8015610cab5780601f10610c8057610100808354040283529160200191610cab565b820191906000526020600020905b815481529060010190602001808311610c8e57829003601f168201915b505050505090806001018054610cc090613e50565b80601f0160208091040260200160405190810160405280929190818152602001828054610cec90613e50565b8015610d395780601f10610d0e57610100808354040283529160200191610d39565b820191906000526020600020905b815481529060010190602001808311610d1c57829003601f168201915b5050505050908060020154908060030154908060040154905085565b610d66610d60612011565b836120d2565b610da5576040517f08c379a0000000000000000000000000000000000000000000000000000000008152600401610d9c90614017565b60405180910390fd5b610db184848484612609565b50505050565b6060600f805480602002602001604051908101604052809291908181526020016000905b82821015610f5957838290600052602060002090600602016040518060c001604052908160008201548152602001600182018054610e1890613e50565b80601f0160208091040260200160405190810160405280929190818152602001828054610e4490613e50565b8015610e915780601f10610e6657610100808354040283529160200191610e91565b820191906000526020600020905b815481529060010190602001808311610e7457829003601f168201915b50505050508152602001600282018054610eaa90613e50565b80601f0160208091040260200160405190810160405280929190818152602001828054610ed690613e50565b8015610f235780601f10610ef857610100808354040283529160200191610f23565b820191906000526020600020905b815481529060010190602001808311610f0657829003601f168201915b50505050508152602001600382015481526020016004820154815260200160058201548152505081526020019060010190610ddb565b50505050905090565b60606000600760008481526020019081526020016000206040518060c001604052908160008201548152602001600182018054610f9e90613e50565b80601f0160208091040260200160405190810160405280929190818152602001828054610fca90613e50565b80156110175780601f10610fec57610100808354040283529160200191611017565b820191906000526020600020905b815481529060010190602001808311610ffa57829003601f168201915b5050505050815260200160028201805461103090613e50565b80601f016020809104026020016040519081016040528092919081815260200182805461105c90613e50565b80156110a95780601f1061107e576101008083540402835291602001916110a9565b820191906000526020600020905b81548152906001019060200180831161108c57829003601f168201915b505050505081526020016003820154815260200160048201548152602001600582015481525050905060006110e18260600151612665565b905060006110f28360800151612665565b905060006111038460a00151612665565b90506000611149856020015161111889612665565b876040015187878760405160200161113596959493929190614443565b604051602081830303815290604052612733565b905060008160405160200161115e9190614534565b6040516020818303038152906040529050809650505050505050919050565b611185613443565b6000600860003373ffffffffffffffffffffffffffffffffffffffff1673ffffffffffffffffffffffffffffffffffffffff168152602001908152602001600020549050600081111561134457600760008281526020019081526020016000206040518060c00160405290816000820154815260200160018201805461120a90613e50565b80601f016020809104026020016040519081016040528092919081815260200182805461123690613e50565b80156112835780601f1061125857610100808354040283529160200191611283565b820191906000526020600020905b81548152906001019060200180831161126657829003601f168201915b5050505050815260200160028201805461129c90613e50565b80601f01602080910402602001604051908101604052809291908181526020018280546112c890613e50565b80156113155780601f106112ea57610100808354040283529160200191611315565b820191906000526020600020905b8154815290600101906020018083116112f857829003601f168201915b505050505081526020016003820154815260200160048201548152602001600582015481525050915050611352565b61134c613443565b80925050505b90565b6000600860003373ffffffffffffffffffffffffffffffffffffffff1673ffffffffffffffffffffffffffffffffffffffff16815260200190815260200160002054905060006007600083815260200190815260200160002090506114686040518060600160405280603c815260200161520b603c91398260010180546113db90613e50565b80601f016020809104026020016040519081016040528092919081815260200182805461140790613e50565b80156114545780601f1061142957610100808354040283529160200191611454565b820191906000526020600020905b81548152906001019060200180831161143757829003601f168201915b5050505050836003015484600501546128ca565b6115406040518060400160405280601b81526020017f426f73732025732068617320257320485020616e642025732041440000000000815250600960000180546114b190613e50565b80601f01602080910402602001604051908101604052809291908181526020018280546114dd90613e50565b801561152a5780601f106114ff5761010080835404028352916020019161152a565b820191906000526020600020905b81548152906001019060200180831161150d57829003601f168201915b50505050506009600201546009600401546128ca565b6000816003015411611587576040517f08c379a000000000000000000000000000000000000000000000000000000000815260040161157e906145a2565b60405180910390fd5b6000600960020154116115cf576040517f08c379a00000000000000000000000000000000000000000000000000000000081526004016115c69061460e565b60405180910390fd5b6117286040518060400160405280601281526020017f2573207377696e67732061742025732e2e2e000000000000000000000000000081525082600101805461161790613e50565b80601f016020809104026020016040519081016040528092919081815260200182805461164390613e50565b80156116905780601f1061166557610100808354040283529160200191611690565b820191906000526020600020905b81548152906001019060200180831161167357829003601f168201915b5050505050600960000180546116a590613e50565b80601f01602080910402602001604051908101604052809291908181526020018280546116d190613e50565b801561171e5780601f106116f35761010080835404028352916020019161171e565b820191906000526020600020905b81548152906001019060200180831161170157829003601f168201915b505050505061296c565b806005015460096002015410156117875760006009600201819055506117826040518060400160405280601181526020017f54686520626f7373206973206465616421000000000000000000000000000000815250611e0b565b6117a6565b806005015460096002015461179c919061465d565b6009600201819055505b6009600401548160030154101561180457600081600301819055506117ff6040518060400160405280601481526020017f596f757220706c61796572206973206465616421000000000000000000000000815250611e0b565b6119ba565b6005611810600a612a0b565b11156118ec57600960040154816003015461182b919061465d565b81600301819055506118e760405180606001604052806025815260200161512b602591396009600001805461185f90613e50565b80601f016020809104026020016040519081016040528092919081815260200182805461188b90613e50565b80156118d85780601f106118ad576101008083540402835291602001916118d8565b820191906000526020600020905b8154815290600101906020018083116118bb57829003601f168201915b50505050508360030154612a67565b6119b9565b6119b86040518060400160405280600b81526020017f2573206d6973736564210a0000000000000000000000000000000000000000008152506009600001805461193590613e50565b80601f016020809104026020016040519081016040528092919081815260200182805461196190613e50565b80156119ae5780601f10611983576101008083540402835291602001916119ae565b820191906000526020600020905b81548152906001019060200180831161199157829003601f168201915b5050505050612b06565b5b5b6119e160405180606001604052806025815260200161515060259139600960020154612ba2565b611a076040518060600160405280602881526020016151b5602891398260030154612ba2565b7f32bd565ee3f2cb5ddd742bbecd6048d3e9abe90b3827a40c2b72d232e71e3c9d336009600201548360030154604051611a4393929190614691565b60405180910390a15050565b6000600560008473ffffffffffffffffffffffffffffffffffffffff1673ffffffffffffffffffffffffffffffffffffffff16815260200190815260200160002060008373ffffffffffffffffffffffffffffffffffffffff1673ffffffffffffffffffffffffffffffffffffffff16815260200190815260200160002060009054906101000a900460ff16905092915050565b6000611aef6006612c3e565b9050611afb3382612c4c565b6040518060c00160405280838152602001600f8481548110611b2057611b1f6146c8565b5b90600052602060002090600602016001018054611b3c90613e50565b80601f0160208091040260200160405190810160405280929190818152602001828054611b6890613e50565b8015611bb55780601f10611b8a57610100808354040283529160200191611bb5565b820191906000526020600020905b815481529060010190602001808311611b9857829003601f168201915b50505050508152602001600f8481548110611bd357611bd26146c8565b5b90600052602060002090600602016002018054611bef90613e50565b80601f0160208091040260200160405190810160405280929190818152602001828054611c1b90613e50565b8015611c685780601f10611c3d57610100808354040283529160200191611c68565b820191906000526020600020905b815481529060010190602001808311611c4b57829003601f168201915b50505050508152602001600f8481548110611c8657611c856146c8565b5b9060005260206000209060060201600301548152602001600f8481548110611cb157611cb06146c8565b5b9060005260206000209060060201600401548152602001600f8481548110611cdc57611cdb6146c8565b5b90600052602060002090600602016005015481525060076000838152602001908152602001600020600082015181600001556020820151816001019081611d2391906148a3565b506040820151816002019081611d3991906148a3565b50606082015181600301556080820151816004015560a08201518160050155905050611d7e6040518060600160405280602e81526020016151dd602e91398284612c6a565b80600860003373ffffffffffffffffffffffffffffffffffffffff1673ffffffffffffffffffffffffffffffffffffffff16815260200190815260200160002081905550611dcc6006611f46565b7f4bc303fd457a97b4691b9af582ce71868a3d258638c8d4f8c60988a0f0bfb8cd338284604051611dff93929190614691565b60405180910390a15050565b611ea181604051602401611e1f91906136da565b6040516020818303038152906040527f41304fac000000000000000000000000000000000000000000000000000000007bffffffffffffffffffffffffffffffffffffffffffffffffffffffff19166020820180517bffffffffffffffffffffffffffffffffffffffffffffffffffffffff8381831617835250505050612d09565b50565b611f4084848484604051602401611ebe9493929190614975565b6040516020818303038152906040527f5d1a971a000000000000000000000000000000000000000000000000000000007bffffffffffffffffffffffffffffffffffffffffffffffffffffffff19166020820180517bffffffffffffffffffffffffffffffffffffffffffffffffffffffff8381831617835250505050612d09565b50505050565b6001816000016000828254019250508190555050565b60007f01ffc9a7000000000000000000000000000000000000000000000000000000007bffffffffffffffffffffffffffffffffffffffffffffffffffffffff1916827bffffffffffffffffffffffffffffffffffffffffffffffffffffffff1916149050919050565b611fcf81612d32565b61200e576040517f08c379a000000000000000000000000000000000000000000000000000000000815260040161200590614083565b60405180910390fd5b50565b600033905090565b816004600083815260200190815260200160002060006101000a81548173ffffffffffffffffffffffffffffffffffffffff021916908373ffffffffffffffffffffffffffffffffffffffff160217905550808273ffffffffffffffffffffffffffffffffffffffff1661208c836108d8565b73ffffffffffffffffffffffffffffffffffffffff167f8c5be1e5ebec7d5bd14f71427d1e84f3dd0314c0f7b2291e5b200ac8c7c3b92560405160405180910390a45050565b6000806120de836108d8565b90508073ffffffffffffffffffffffffffffffffffffffff168473ffffffffffffffffffffffffffffffffffffffff161480612120575061211f8185611a4f565b5b8061215e57508373ffffffffffffffffffffffffffffffffffffffff16612146846106fb565b73ffffffffffffffffffffffffffffffffffffffff16145b91505092915050565b8273ffffffffffffffffffffffffffffffffffffffff16612187826108d8565b73ffffffffffffffffffffffffffffffffffffffff16146121dd576040517f08c379a00000000000000000000000000000000000000000000000000000000081526004016121d490614a41565b60405180910390fd5b600073ffffffffffffffffffffffffffffffffffffffff168273ffffffffffffffffffffffffffffffffffffffff160361224c576040517f08c379a000000000000000000000000000000000000000000000000000000000815260040161224390614ad3565b60405180910390fd5b6122598383836001612d73565b8273ffffffffffffffffffffffffffffffffffffffff16612279826108d8565b73ffffffffffffffffffffffffffffffffffffffff16146122cf576040517f08c379a00000000000000000000000000000000000000000000000000000000081526004016122c690614a41565b60405180910390fd5b6004600082815260200190815260200160002060006101000a81549073ffffffffffffffffffffffffffffffffffffffff02191690556001600360008573ffffffffffffffffffffffffffffffffffffffff1673ffffffffffffffffffffffffffffffffffffffff168152602001908152602001600020600082825403925050819055506001600360008473ffffffffffffffffffffffffffffffffffffffff1673ffffffffffffffffffffffffffffffffffffffff16815260200190815260200160002060008282540192505081905550816002600083815260200190815260200160002060006101000a81548173ffffffffffffffffffffffffffffffffffffffff021916908373ffffffffffffffffffffffffffffffffffffffff160217905550808273ffffffffffffffffffffffffffffffffffffffff168473ffffffffffffffffffffffffffffffffffffffff167fddf252ad1be2c89b69c2b068fc378daa952ba7f163c4a11628f55a4df523b3ef60405160405180910390a461245b8383836001612e99565b505050565b60006002600083815260200190815260200160002060009054906101000a900473ffffffffffffffffffffffffffffffffffffffff169050919050565b8173ffffffffffffffffffffffffffffffffffffffff168373ffffffffffffffffffffffffffffffffffffffff160361250b576040517f08c379a000000000000000000000000000000000000000000000000000000000815260040161250290614b3f565b60405180910390fd5b80600560008573ffffffffffffffffffffffffffffffffffffffff1673ffffffffffffffffffffffffffffffffffffffff16815260200190815260200160002060008473ffffffffffffffffffffffffffffffffffffffff1673ffffffffffffffffffffffffffffffffffffffff16815260200190815260200160002060006101000a81548160ff0219169083151502179055508173ffffffffffffffffffffffffffffffffffffffff168373ffffffffffffffffffffffffffffffffffffffff167f17307eab39ab6107e8899845ad3d59bd9653f200f220920489ca2b5937696c31836040516125fc919061352d565b60405180910390a3505050565b612614848484612167565b61262084848484612e9f565b61265f576040517f08c379a000000000000000000000000000000000000000000000000000000000815260040161265690614bd1565b60405180910390fd5b50505050565b60606000600161267484613026565b01905060008167ffffffffffffffff81111561269357612692613a0d565b5b6040519080825280601f01601f1916602001820160405280156126c55781602001600182028036833780820191505090505b509050600082602001820190505b600115612728578080600190039150507f3031323334353637383961626364656600000000000000000000000000000000600a86061a8153600a858161271c5761271b614bf1565b5b049450600085036126d3575b819350505050919050565b60606000825190506000810361275b57604051806020016040528060008152509150506128c5565b6000600360028361276c9190614c20565b6127769190614c54565b60046127829190614c85565b905060006020826127939190614c20565b67ffffffffffffffff8111156127ac576127ab613a0d565b5b6040519080825280601f01601f1916602001820160405280156127de5781602001600182028036833780820191505090505b5090506000604051806060016040528060408152602001615175604091399050600181016020830160005b868110156128825760038101905062ffffff818a015116603f8160121c168401518060081b905060ff603f83600c1c1686015116810190508060081b905060ff603f8360061c1686015116810190508060081b905060ff603f831686015116810190508060e01b90508084526004840193505050612809565b50600386066001811461289c57600281146128ac576128b7565b613d3d60f01b60028303526128b7565b603d60f81b60018303525b508484525050819450505050505b919050565b612966848484846040516024016128e49493929190614cc7565b6040516020818303038152906040527ff45d7d2c000000000000000000000000000000000000000000000000000000007bffffffffffffffffffffffffffffffffffffffffffffffffffffffff19166020820180517bffffffffffffffffffffffffffffffffffffffffffffffffffffffff8381831617835250505050612d09565b50505050565b612a0683838360405160240161298493929190614d1a565b6040516020818303038152906040527f2ced7cef000000000000000000000000000000000000000000000000000000007bffffffffffffffffffffffffffffffffffffffffffffffffffffffff19166020820180517bffffffffffffffffffffffffffffffffffffffffffffffffffffffff8381831617835250505050612d09565b505050565b6000600e6000815480929190612a2090614d66565b9190505550814233600e54604051602001612a3d93929190614e17565b6040516020818303038152906040528051906020012060001c612a609190614e54565b9050919050565b612b01838383604051602401612a7f93929190614e85565b6040516020818303038152906040527f5821efa1000000000000000000000000000000000000000000000000000000007bffffffffffffffffffffffffffffffffffffffffffffffffffffffff19166020820180517bffffffffffffffffffffffffffffffffffffffffffffffffffffffff8381831617835250505050612d09565b505050565b612b9e8282604051602401612b1c929190614eca565b6040516020818303038152906040527f4b5c4277000000000000000000000000000000000000000000000000000000007bffffffffffffffffffffffffffffffffffffffffffffffffffffffff19166020820180517bffffffffffffffffffffffffffffffffffffffffffffffffffffffff8381831617835250505050612d09565b5050565b612c3a8282604051602401612bb8929190614f01565b6040516020818303038152906040527fb60e72cc000000000000000000000000000000000000000000000000000000007bffffffffffffffffffffffffffffffffffffffffffffffffffffffff19166020820180517bffffffffffffffffffffffffffffffffffffffffffffffffffffffff8381831617835250505050612d09565b5050565b600081600001549050919050565b612c66828260405180602001604052806000815250613179565b5050565b612d04838383604051602401612c8293929190614f31565b6040516020818303038152906040527fca47c4eb000000000000000000000000000000000000000000000000000000007bffffffffffffffffffffffffffffffffffffffffffffffffffffffff19166020820180517bffffffffffffffffffffffffffffffffffffffffffffffffffffffff8381831617835250505050612d09565b505050565b60008151905060006a636f6e736f6c652e6c6f679050602083016000808483855afa5050505050565b60008073ffffffffffffffffffffffffffffffffffffffff16612d5483612460565b73ffffffffffffffffffffffffffffffffffffffff1614159050919050565b6001811115612e9357600073ffffffffffffffffffffffffffffffffffffffff168473ffffffffffffffffffffffffffffffffffffffff1614612e075780600360008673ffffffffffffffffffffffffffffffffffffffff1673ffffffffffffffffffffffffffffffffffffffff1681526020019081526020016000206000828254612dff919061465d565b925050819055505b600073ffffffffffffffffffffffffffffffffffffffff168373ffffffffffffffffffffffffffffffffffffffff1614612e925780600360008573ffffffffffffffffffffffffffffffffffffffff1673ffffffffffffffffffffffffffffffffffffffff1681526020019081526020016000206000828254612e8a9190614c20565b925050819055505b5b50505050565b50505050565b6000612ec08473ffffffffffffffffffffffffffffffffffffffff166131d4565b15613019578373ffffffffffffffffffffffffffffffffffffffff1663150b7a02612ee9612011565b8786866040518563ffffffff1660e01b8152600401612f0b9493929190614fc4565b6020604051808303816000875af1925050508015612f4757506040513d601f19601f82011682018060405250810190612f449190615025565b60015b612fc9573d8060008114612f77576040519150601f19603f3d011682016040523d82523d6000602084013e612f7c565b606091505b506000815103612fc1576040517f08c379a0000000000000000000000000000000000000000000000000000000008152600401612fb890614bd1565b60405180910390fd5b805181602001fd5b63150b7a0260e01b7bffffffffffffffffffffffffffffffffffffffffffffffffffffffff1916817bffffffffffffffffffffffffffffffffffffffffffffffffffffffff19161491505061301e565b600190505b949350505050565b600080600090507a184f03e93ff9f4daa797ed6e38ed64bf6a1f0100000000000000008310613084577a184f03e93ff9f4daa797ed6e38ed64bf6a1f010000000000000000838161307a57613079614bf1565b5b0492506040810190505b6d04ee2d6d415b85acef810000000083106130c1576d04ee2d6d415b85acef810000000083816130b7576130b6614bf1565b5b0492506020810190505b662386f26fc1000083106130f057662386f26fc1000083816130e6576130e5614bf1565b5b0492506010810190505b6305f5e1008310613119576305f5e100838161310f5761310e614bf1565b5b0492506008810190505b612710831061313e57612710838161313457613133614bf1565b5b0492506004810190505b60648310613161576064838161315757613156614bf1565b5b0492506002810190505b600a8310613170576001810190505b80915050919050565b61318383836131f7565b6131906000848484612e9f565b6131cf576040517f08c379a00000000000000000000000000000000000000000000000000000000081526004016131c690614bd1565b60405180910390fd5b505050565b6000808273ffffffffffffffffffffffffffffffffffffffff163b119050919050565b600073ffffffffffffffffffffffffffffffffffffffff168273ffffffffffffffffffffffffffffffffffffffff1603613266576040517f08c379a000000000000000000000000000000000000000000000000000000000815260040161325d9061509e565b60405180910390fd5b61326f81612d32565b156132af576040517f08c379a00000000000000000000000000000000000000000000000000000000081526004016132a69061510a565b60405180910390fd5b6132bd600083836001612d73565b6132c681612d32565b15613306576040517f08c379a00000000000000000000000000000000000000000000000000000000081526004016132fd9061510a565b60405180910390fd5b6001600360008473ffffffffffffffffffffffffffffffffffffffff1673ffffffffffffffffffffffffffffffffffffffff16815260200190815260200160002060008282540192505081905550816002600083815260200190815260200160002060006101000a81548173ffffffffffffffffffffffffffffffffffffffff021916908373ffffffffffffffffffffffffffffffffffffffff160217905550808273ffffffffffffffffffffffffffffffffffffffff16600073ffffffffffffffffffffffffffffffffffffffff167fddf252ad1be2c89b69c2b068fc378daa952ba7f163c4a11628f55a4df523b3ef60405160405180910390a4613410600083836001612e99565b5050565b6040518060a0016040528060608152602001606081526020016000815260200160008152602001600081525090565b6040518060c001604052806000815260200160608152602001606081526020016000815260200160008152602001600081525090565b6000604051905090565b600080fd5b600080fd5b60007fffffffff0000000000000000000000000000000000000000000000000000000082169050919050565b6134c28161348d565b81146134cd57600080fd5b50565b6000813590506134df816134b9565b92915050565b6000602082840312156134fb576134fa613483565b5b6000613509848285016134d0565b91505092915050565b60008115159050919050565b61352781613512565b82525050565b6000602082019050613542600083018461351e565b92915050565b600081519050919050565b600082825260208201905092915050565b60005b83811015613582578082015181840152602081019050613567565b60008484015250505050565b6000601f19601f8301169050919050565b60006135aa82613548565b6135b48185613553565b93506135c4818560208601613564565b6135cd8161358e565b840191505092915050565b6000819050919050565b6135eb816135d8565b82525050565b600060a083016000830151848203600086015261360e828261359f565b91505060208301518482036020860152613628828261359f565b915050604083015161363d60408601826135e2565b50606083015161365060608601826135e2565b50608083015161366360808601826135e2565b508091505092915050565b6000602082019050818103600083015261368881846135f1565b905092915050565b600082825260208201905092915050565b60006136ac82613548565b6136b68185613690565b93506136c6818560208601613564565b6136cf8161358e565b840191505092915050565b600060208201905081810360008301526136f481846136a1565b905092915050565b613705816135d8565b811461371057600080fd5b50565b600081359050613722816136fc565b92915050565b60006020828403121561373e5761373d613483565b5b600061374c84828501613713565b91505092915050565b600073ffffffffffffffffffffffffffffffffffffffff82169050919050565b600061378082613755565b9050919050565b61379081613775565b82525050565b60006020820190506137ab6000830184613787565b92915050565b6137ba81613775565b81146137c557600080fd5b50565b6000813590506137d7816137b1565b92915050565b600080604083850312156137f4576137f3613483565b5b6000613802858286016137c8565b925050602061381385828601613713565b9150509250929050565b60008060006060848603121561383657613835613483565b5b6000613844868287016137c8565b9350506020613855868287016137c8565b925050604061386686828701613713565b9150509250925092565b60006020828403121561388657613885613483565b5b6000613894848285016137c8565b91505092915050565b6138a6816135d8565b82525050565b60006020820190506138c1600083018461389d565b92915050565b600060c0820190506138dc600083018961389d565b81810360208301526138ee81886136a1565b9050818103604083015261390281876136a1565b9050613911606083018661389d565b61391e608083018561389d565b61392b60a083018461389d565b979650505050505050565b61393f81613512565b811461394a57600080fd5b50565b60008135905061395c81613936565b92915050565b6000806040838503121561397957613978613483565b5b6000613987858286016137c8565b92505060206139988582860161394d565b9150509250929050565b600060a08201905081810360008301526139bc81886136a1565b905081810360208301526139d081876136a1565b90506139df604083018661389d565b6139ec606083018561389d565b6139f9608083018461389d565b9695505050505050565b600080fd5b600080fd5b7f4e487b7100000000000000000000000000000000000000000000000000000000600052604160045260246000fd5b613a458261358e565b810181811067ffffffffffffffff82111715613a6457613a63613a0d565b5b80604052505050565b6000613a77613479565b9050613a838282613a3c565b919050565b600067ffffffffffffffff821115613aa357613aa2613a0d565b5b613aac8261358e565b9050602081019050919050565b82818337600083830152505050565b6000613adb613ad684613a88565b613a6d565b905082815260208101848484011115613af757613af6613a08565b5b613b02848285613ab9565b509392505050565b600082601f830112613b1f57613b1e613a03565b5b8135613b2f848260208601613ac8565b91505092915050565b60008060008060808587031215613b5257613b51613483565b5b6000613b60878288016137c8565b9450506020613b71878288016137c8565b9350506040613b8287828801613713565b925050606085013567ffffffffffffffff811115613ba357613ba2613488565b5b613baf87828801613b0a565b91505092959194509250565b600081519050919050565b600082825260208201905092915050565b6000819050602082019050919050565b600060c083016000830151613bff60008601826135e2565b5060208301518482036020860152613c17828261359f565b91505060408301518482036040860152613c31828261359f565b9150506060830151613c4660608601826135e2565b506080830151613c5960808601826135e2565b5060a0830151613c6c60a08601826135e2565b508091505092915050565b6000613c838383613be7565b905092915050565b6000602082019050919050565b6000613ca382613bbb565b613cad8185613bc6565b935083602082028501613cbf85613bd7565b8060005b85811015613cfb5784840389528151613cdc8582613c77565b9450613ce783613c8b565b925060208a01995050600181019050613cc3565b50829750879550505050505092915050565b60006020820190508181036000830152613d278184613c98565b905092915050565b600060c083016000830151613d4760008601826135e2565b5060208301518482036020860152613d5f828261359f565b91505060408301518482036040860152613d79828261359f565b9150506060830151613d8e60608601826135e2565b506080830151613da160808601826135e2565b5060a0830151613db460a08601826135e2565b508091505092915050565b60006020820190508181036000830152613dd98184613d2f565b905092915050565b60008060408385031215613df857613df7613483565b5b6000613e06858286016137c8565b9250506020613e17858286016137c8565b9150509250929050565b7f4e487b7100000000000000000000000000000000000000000000000000000000600052602260045260246000fd5b60006002820490506001821680613e6857607f821691505b602082108103613e7b57613e7a613e21565b5b50919050565b7f4552433732313a20617070726f76616c20746f2063757272656e74206f776e6560008201527f7200000000000000000000000000000000000000000000000000000000000000602082015250565b6000613edd602183613690565b9150613ee882613e81565b604082019050919050565b60006020820190508181036000830152613f0c81613ed0565b9050919050565b7f4552433732313a20617070726f76652063616c6c6572206973206e6f7420746f60008201527f6b656e206f776e6572206f7220617070726f76656420666f7220616c6c000000602082015250565b6000613f6f603d83613690565b9150613f7a82613f13565b604082019050919050565b60006020820190508181036000830152613f9e81613f62565b9050919050565b7f4552433732313a2063616c6c6572206973206e6f7420746f6b656e206f776e6560008201527f72206f7220617070726f76656400000000000000000000000000000000000000602082015250565b6000614001602d83613690565b915061400c82613fa5565b604082019050919050565b6000602082019050818103600083015261403081613ff4565b9050919050565b7f4552433732313a20696e76616c696420746f6b656e2049440000000000000000600082015250565b600061406d601883613690565b915061407882614037565b602082019050919050565b6000602082019050818103600083015261409c81614060565b9050919050565b7f4552433732313a2061646472657373207a65726f206973206e6f74206120766160008201527f6c6964206f776e65720000000000000000000000000000000000000000000000602082015250565b60006140ff602983613690565b915061410a826140a3565b604082019050919050565b6000602082019050818103600083015261412e816140f2565b9050919050565b600081905092915050565b7f7b226e616d65223a202200000000000000000000000000000000000000000000600082015250565b6000614176600a83614135565b915061418182614140565b600a82019050919050565b600061419782613548565b6141a18185614135565b93506141b1818560208601613564565b80840191505092915050565b7f202d2d204e465420233a20000000000000000000000000000000000000000000600082015250565b60006141f3600b83614135565b91506141fe826141bd565b600b82019050919050565b7f222c20226465736372697074696f6e223a20225468697320697320616e204e4660008201527f542074686174206c6574732070656f706c6520706c617920696e20746865206760208201527f616d65204d657461766572736520536c6179657221222c2022696d616765223a60408201527f2022000000000000000000000000000000000000000000000000000000000000606082015250565b60006142b1606283614135565b91506142bc82614209565b606282019050919050565b7f222c202261747472696275746573223a205b207b202274726169745f7479706560008201527f223a20224865616c746820506f696e7473222c202276616c7565223a20000000602082015250565b6000614323603d83614135565b915061432e826142c7565b603d82019050919050565b7f2c20226d61785f76616c7565223a000000000000000000000000000000000000600082015250565b600061436f600e83614135565b915061437a82614339565b600e82019050919050565b7f7d2c207b202274726169745f74797065223a202241747461636b2044616d616760008201527f65222c202276616c7565223a2000000000000000000000000000000000000000602082015250565b60006143e1602d83614135565b91506143ec82614385565b602d82019050919050565b7f7d205d7d00000000000000000000000000000000000000000000000000000000600082015250565b600061442d600483614135565b9150614438826143f7565b600482019050919050565b600061444e82614169565b915061445a828961418c565b9150614465826141e6565b9150614471828861418c565b915061447c826142a4565b9150614488828761418c565b915061449382614316565b915061449f828661418c565b91506144aa82614362565b91506144b6828561418c565b91506144c1826143d4565b91506144cd828461418c565b91506144d882614420565b9150819050979650505050505050565b7f646174613a6170706c69636174696f6e2f6a736f6e3b6261736536342c000000600082015250565b600061451e601d83614135565b9150614529826144e8565b601d82019050919050565b600061453f82614511565b915061454b828461418c565b915081905092915050565b7f596f7572204e465473206973206f7574206f6620485000000000000000000000600082015250565b600061458c601683613690565b915061459782614556565b602082019050919050565b600060208201905081810360008301526145bb8161457f565b9050919050565b7f54686520626f7373206973206f7574206f662048500000000000000000000000600082015250565b60006145f8601583613690565b9150614603826145c2565b602082019050919050565b60006020820190508181036000830152614627816145eb565b9050919050565b7f4e487b7100000000000000000000000000000000000000000000000000000000600052601160045260246000fd5b6000614668826135d8565b9150614673836135d8565b925082820390508181111561468b5761468a61462e565b5b92915050565b60006060820190506146a66000830186613787565b6146b3602083018561389d565b6146c0604083018461389d565b949350505050565b7f4e487b7100000000000000000000000000000000000000000000000000000000600052603260045260246000fd5b60008190508160005260206000209050919050565b60006020601f8301049050919050565b600082821b905092915050565b6000600883026147597fffffffffffffffffffffffffffffffffffffffffffffffffffffffffffffffff8261471c565b614763868361471c565b95508019841693508086168417925050509392505050565b6000819050919050565b60006147a061479b614796846135d8565b61477b565b6135d8565b9050919050565b6000819050919050565b6147ba83614785565b6147ce6147c6826147a7565b848454614729565b825550505050565b600090565b6147e36147d6565b6147ee8184846147b1565b505050565b5b81811015614812576148076000826147db565b6001810190506147f4565b5050565b601f82111561485757614828816146f7565b6148318461470c565b81016020851015614840578190505b61485461484c8561470c565b8301826147f3565b50505b505050565b600082821c905092915050565b600061487a6000198460080261485c565b1980831691505092915050565b60006148938383614869565b9150826002028217905092915050565b6148ac82613548565b67ffffffffffffffff8111156148c5576148c4613a0d565b5b6148cf8254613e50565b6148da828285614816565b600060209050601f83116001811461490d57600084156148fb578287015190505b6149058582614887565b86555061496d565b601f19841661491b866146f7565b60005b828110156149435784890151825560018201915060208501945060208101905061491e565b86831015614960578489015161495c601f891682614869565b8355505b6001600288020188555050505b505050505050565b6000608082019050818103600083015261498f81876136a1565b905081810360208301526149a381866136a1565b90506149b2604083018561389d565b81810360608301526149c481846136a1565b905095945050505050565b7f4552433732313a207472616e736665722066726f6d20696e636f72726563742060008201527f6f776e6572000000000000000000000000000000000000000000000000000000602082015250565b6000614a2b602583613690565b9150614a36826149cf565b604082019050919050565b60006020820190508181036000830152614a5a81614a1e565b9050919050565b7f4552433732313a207472616e7366657220746f20746865207a65726f2061646460008201527f7265737300000000000000000000000000000000000000000000000000000000602082015250565b6000614abd602483613690565b9150614ac882614a61565b604082019050919050565b60006020820190508181036000830152614aec81614ab0565b9050919050565b7f4552433732313a20617070726f766520746f2063616c6c657200000000000000600082015250565b6000614b29601983613690565b9150614b3482614af3565b602082019050919050565b60006020820190508181036000830152614b5881614b1c565b9050919050565b7f4552433732313a207472616e7366657220746f206e6f6e20455243373231526560008201527f63656976657220696d706c656d656e7465720000000000000000000000000000602082015250565b6000614bbb603283613690565b9150614bc682614b5f565b604082019050919050565b60006020820190508181036000830152614bea81614bae565b9050919050565b7f4e487b7100000000000000000000000000000000000000000000000000000000600052601260045260246000fd5b6000614c2b826135d8565b9150614c36836135d8565b9250828201905080821115614c4e57614c4d61462e565b5b92915050565b6000614c5f826135d8565b9150614c6a836135d8565b925082614c7a57614c79614bf1565b5b828204905092915050565b6000614c90826135d8565b9150614c9b836135d8565b9250828202614ca9816135d8565b91508282048414831517614cc057614cbf61462e565b5b5092915050565b60006080820190508181036000830152614ce181876136a1565b90508181036020830152614cf581866136a1565b9050614d04604083018561389d565b614d11606083018461389d565b95945050505050565b60006060820190508181036000830152614d3481866136a1565b90508181036020830152614d4881856136a1565b90508181036040830152614d5c81846136a1565b9050949350505050565b6000614d71826135d8565b91507fffffffffffffffffffffffffffffffffffffffffffffffffffffffffffffffff8203614da357614da261462e565b5b600182019050919050565b6000819050919050565b614dc9614dc4826135d8565b614dae565b82525050565b60008160601b9050919050565b6000614de782614dcf565b9050919050565b6000614df982614ddc565b9050919050565b614e11614e0c82613775565b614dee565b82525050565b6000614e238286614db8565b602082019150614e338285614e00565b601482019150614e438284614db8565b602082019150819050949350505050565b6000614e5f826135d8565b9150614e6a836135d8565b925082614e7a57614e79614bf1565b5b828206905092915050565b60006060820190508181036000830152614e9f81866136a1565b90508181036020830152614eb381856136a1565b9050614ec2604083018461389d565b949350505050565b60006040820190508181036000830152614ee481856136a1565b90508181036020830152614ef881846136a1565b90509392505050565b60006040820190508181036000830152614f1b81856136a1565b9050614f2a602083018461389d565b9392505050565b60006060820190508181036000830152614f4b81866136a1565b9050614f5a602083018561389d565b614f67604083018461389d565b949350505050565b600081519050919050565b600082825260208201905092915050565b6000614f9682614f6f565b614fa08185614f7a565b9350614fb0818560208601613564565b614fb98161358e565b840191505092915050565b6000608082019050614fd96000830187613787565b614fe66020830186613787565b614ff3604083018561389d565b81810360608301526150058184614f8b565b905095945050505050565b60008151905061501f816134b9565b92915050565b60006020828403121561503b5761503a613483565b5b600061504984828501615010565b91505092915050565b7f4552433732313a206d696e7420746f20746865207a65726f2061646472657373600082015250565b6000615088602083613690565b915061509382615052565b602082019050919050565b600060208201905081810360008301526150b78161507b565b9050919050565b7f4552433732313a20746f6b656e20616c7265616479206d696e74656400000000600082015250565b60006150f4601c83613690565b91506150ff826150be565b602082019050919050565b60006020820190508181036000830152615123816150e7565b905091905056fe25732061747461636b656420706c617965722e204e657720706c617965722068703a202573506c617965722061747461636b656420626f73732e204e657720626f73732068703a2025734142434445464748494a4b4c4d4e4f505152535455565758595a6162636465666768696a6b6c6d6e6f707172737475767778797a303132333435363738392b2f426f73732061747461636b656420706c617965722e204e657720706c617965722068703a2025730a4d696e746564204e465420772f20746f6b656e496420257320616e6420636861726163746572496e6465782025730a506c6179657220772f206368617261637465722025732061626f757420746f2061747461636b2e2048617320257320485020616e64202573204144a26469706673582212203be7fb78f9f7e51d8e5fb5d4d9cb552acde552565a8f061dbe27b73dd4c2c4c464736f6c63430008110033446f6e6520696e697469616c697a696e6720257320772f2048502025732c20696d67202573446f6e6520696e697469616c697a696e6720626f737320257320772f2048502025732c20696d67202573",
    "linkReferences": {},
    "deployedLinkReferences": {}
}